{
  "_format": "hh-sol-artifact-1",
  "contractName": "ColaBooking",
  "sourceName": "contracts/ColaBooking.sol",
  "abi": [
    {
      "inputs": [
        {
          "internalType": "uint256",
          "name": "_date",
          "type": "uint256"
        },
        {
          "internalType": "address",
          "name": "_owner",
          "type": "address"
        },
        {
          "internalType": "uint256",
          "name": "_numRoomsPerCompany",
          "type": "uint256"
        }
      ],
      "stateMutability": "nonpayable",
      "type": "constructor"
    },
    {
      "anonymous": false,
      "inputs": [
        {
          "indexed": false,
          "internalType": "uint256",
          "name": "addresscompanyId",
          "type": "uint256"
        },
        {
          "indexed": false,
          "internalType": "uint256",
          "name": "_hour",
          "type": "uint256"
        },
        {
          "indexed": false,
          "internalType": "uint256",
          "name": "_roomId",
          "type": "uint256"
        }
      ],
      "name": "bookingCancelation",
      "type": "event"
    },
    {
      "anonymous": false,
      "inputs": [
        {
          "indexed": true,
          "internalType": "uint256",
          "name": "bookingId",
          "type": "uint256"
        },
        {
          "indexed": true,
          "internalType": "uint256",
          "name": "companyId",
          "type": "uint256"
        },
        {
          "indexed": true,
          "internalType": "uint256",
          "name": "hour",
          "type": "uint256"
        },
        {
          "indexed": false,
          "internalType": "uint256",
          "name": "roomId",
          "type": "uint256"
        }
      ],
      "name": "newBooking",
      "type": "event"
    },
    {
      "inputs": [
        {
          "internalType": "uint256",
          "name": "_companyId",
          "type": "uint256"
        },
        {
          "internalType": "address",
          "name": "_employeeAddress",
          "type": "address"
        }
      ],
      "name": "approveEmployee",
      "outputs": [],
      "stateMutability": "nonpayable",
      "type": "function"
    },
    {
      "inputs": [
        {
          "internalType": "uint256",
          "name": "_hour",
          "type": "uint256"
        },
        {
          "internalType": "uint256",
          "name": "_roomId",
          "type": "uint256"
        }
      ],
      "name": "bookARoom",
      "outputs": [
        {
          "internalType": "uint256",
          "name": "",
          "type": "uint256"
        }
      ],
      "stateMutability": "nonpayable",
      "type": "function"
    },
    {
      "inputs": [
        {
          "internalType": "uint256",
          "name": "",
          "type": "uint256"
        }
      ],
      "name": "bookingReceiptsList",
      "outputs": [
        {
          "internalType": "uint256",
          "name": "crTime",
          "type": "uint256"
        },
        {
          "internalType": "uint256",
          "name": "company",
          "type": "uint256"
        },
        {
          "internalType": "uint256",
          "name": "hour",
          "type": "uint256"
        },
        {
          "internalType": "uint256",
          "name": "roomId",
          "type": "uint256"
        },
        {
          "internalType": "address",
          "name": "user",
          "type": "address"
        }
      ],
      "stateMutability": "view",
      "type": "function"
    },
    {
      "inputs": [
        {
          "internalType": "uint256",
          "name": "",
          "type": "uint256"
        }
      ],
      "name": "bookingsArrayMap",
      "outputs": [
        {
          "internalType": "uint256",
          "name": "",
          "type": "uint256"
        }
      ],
      "stateMutability": "view",
      "type": "function"
    },
    {
      "inputs": [],
      "name": "canBook",
      "outputs": [
        {
          "internalType": "bool",
          "name": "",
          "type": "bool"
        }
      ],
      "stateMutability": "view",
      "type": "function"
    },
    {
      "inputs": [
        {
          "internalType": "uint256",
          "name": "_hour",
          "type": "uint256"
        },
        {
          "internalType": "uint256",
          "name": "_roomId",
          "type": "uint256"
        }
      ],
      "name": "cancelABooking",
      "outputs": [
        {
          "components": [
            {
              "internalType": "uint256",
              "name": "crTime",
              "type": "uint256"
            },
            {
              "internalType": "uint256",
              "name": "company",
              "type": "uint256"
            },
            {
              "internalType": "uint256",
              "name": "hour",
              "type": "uint256"
            },
            {
              "internalType": "uint256",
              "name": "roomId",
              "type": "uint256"
            },
            {
              "internalType": "address",
              "name": "user",
              "type": "address"
            }
          ],
          "internalType": "struct ColaBookingCommon.bookingStructure",
          "name": "",
          "type": "tuple"
        }
      ],
      "stateMutability": "nonpayable",
      "type": "function"
    },
    {
      "inputs": [
        {
          "internalType": "uint256",
          "name": "",
          "type": "uint256"
        }
      ],
      "name": "cocacolaEmployees",
      "outputs": [
        {
          "internalType": "address",
          "name": "",
          "type": "address"
        }
      ],
      "stateMutability": "view",
      "type": "function"
    },
    {
      "inputs": [
        {
          "internalType": "uint256",
          "name": "",
          "type": "uint256"
        }
      ],
      "name": "cocacolaPendingEmployees",
      "outputs": [
        {
          "internalType": "address",
          "name": "",
          "type": "address"
        }
      ],
      "stateMutability": "view",
      "type": "function"
    },
    {
      "inputs": [
        {
          "internalType": "uint256",
          "name": "",
          "type": "uint256"
        }
      ],
      "name": "companiesArray",
      "outputs": [
        {
          "internalType": "string",
          "name": "",
          "type": "string"
        }
      ],
      "stateMutability": "view",
      "type": "function"
    },
    {
      "inputs": [],
      "name": "date",
      "outputs": [
        {
          "internalType": "uint256",
          "name": "",
          "type": "uint256"
        }
      ],
      "stateMutability": "view",
      "type": "function"
    },
    {
      "inputs": [
        {
          "internalType": "uint256",
          "name": "_companyId",
          "type": "uint256"
        },
        {
          "internalType": "address",
          "name": "_employeeAddress",
          "type": "address"
        }
      ],
      "name": "deleteAddressInPending",
      "outputs": [],
      "stateMutability": "nonpayable",
      "type": "function"
    },
    {
      "inputs": [],
      "name": "getBookingCounter",
      "outputs": [
        {
          "internalType": "uint256",
          "name": "",
          "type": "uint256"
        }
      ],
      "stateMutability": "view",
      "type": "function"
    },
    {
      "inputs": [
        {
          "internalType": "uint256",
          "name": "_companyId",
          "type": "uint256"
        }
      ],
      "name": "getEmployeesOf",
      "outputs": [
        {
          "internalType": "address[]",
          "name": "",
          "type": "address[]"
        }
      ],
      "stateMutability": "view",
      "type": "function"
    },
    {
      "inputs": [
        {
          "internalType": "uint256",
          "name": "_companyId",
          "type": "uint256"
        },
        {
          "internalType": "uint256",
          "name": "_hour",
          "type": "uint256"
        },
        {
          "internalType": "uint256",
          "name": "_roomId",
          "type": "uint256"
        }
      ],
      "name": "getIfRoomIsBooked",
      "outputs": [
        {
          "internalType": "bool",
          "name": "",
          "type": "bool"
        }
      ],
      "stateMutability": "view",
      "type": "function"
    },
    {
      "inputs": [
        {
          "internalType": "uint256",
          "name": "_companyId",
          "type": "uint256"
        },
        {
          "internalType": "address",
          "name": "_user",
          "type": "address"
        }
      ],
      "name": "getIfUserBelongsTo",
      "outputs": [
        {
          "internalType": "bool",
          "name": "",
          "type": "bool"
        }
      ],
      "stateMutability": "view",
      "type": "function"
    },
    {
      "inputs": [
        {
          "internalType": "uint256",
          "name": "_companyId",
          "type": "uint256"
        },
        {
          "internalType": "address",
          "name": "_user",
          "type": "address"
        }
      ],
      "name": "getIfUserPendingFor",
      "outputs": [
        {
          "internalType": "bool",
          "name": "",
          "type": "bool"
        }
      ],
      "stateMutability": "view",
      "type": "function"
    },
    {
      "inputs": [],
      "name": "getNumberOfUserBookings",
      "outputs": [
        {
          "internalType": "uint256",
          "name": "",
          "type": "uint256"
        }
      ],
      "stateMutability": "view",
      "type": "function"
    },
    {
      "inputs": [
        {
          "internalType": "uint256",
          "name": "_companyId",
          "type": "uint256"
        }
      ],
      "name": "getPendingEmployeesOf",
      "outputs": [
        {
          "internalType": "address[]",
          "name": "",
          "type": "address[]"
        }
      ],
      "stateMutability": "view",
      "type": "function"
    },
    {
      "inputs": [
        {
          "internalType": "uint256",
          "name": "_companyId",
          "type": "uint256"
        },
        {
          "internalType": "uint256",
          "name": "_hour",
          "type": "uint256"
        }
      ],
      "name": "getRoomsStatusPerCompanyAt",
      "outputs": [
        {
          "internalType": "uint256[]",
          "name": "",
          "type": "uint256[]"
        }
      ],
      "stateMutability": "view",
      "type": "function"
    },
    {
      "inputs": [],
      "name": "getUserBookings",
      "outputs": [
        {
          "components": [
            {
              "internalType": "uint256",
              "name": "crTime",
              "type": "uint256"
            },
            {
              "internalType": "uint256",
              "name": "company",
              "type": "uint256"
            },
            {
              "internalType": "uint256",
              "name": "hour",
              "type": "uint256"
            },
            {
              "internalType": "uint256",
              "name": "roomId",
              "type": "uint256"
            },
            {
              "internalType": "address",
              "name": "user",
              "type": "address"
            }
          ],
          "internalType": "struct ColaBookingCommon.bookingStructure[]",
          "name": "",
          "type": "tuple[]"
        }
      ],
      "stateMutability": "view",
      "type": "function"
    },
    {
      "inputs": [],
      "name": "maxBookingsPerUser",
      "outputs": [
        {
          "internalType": "uint256",
          "name": "",
          "type": "uint256"
        }
      ],
      "stateMutability": "view",
      "type": "function"
    },
    {
      "inputs": [],
      "name": "numRoomsPerCompany",
      "outputs": [
        {
          "internalType": "uint256",
          "name": "",
          "type": "uint256"
        }
      ],
      "stateMutability": "view",
      "type": "function"
    },
    {
      "inputs": [
        {
          "internalType": "address",
          "name": "",
          "type": "address"
        }
      ],
      "name": "numberUserBookings",
      "outputs": [
        {
          "internalType": "uint256",
          "name": "",
          "type": "uint256"
        }
      ],
      "stateMutability": "view",
      "type": "function"
    },
    {
      "inputs": [],
      "name": "owner",
      "outputs": [
        {
          "internalType": "address",
          "name": "",
          "type": "address"
        }
      ],
      "stateMutability": "view",
      "type": "function"
    },
    {
      "inputs": [
        {
          "internalType": "uint256",
          "name": "",
          "type": "uint256"
        }
      ],
      "name": "pepsiEmployees",
      "outputs": [
        {
          "internalType": "address",
          "name": "",
          "type": "address"
        }
      ],
      "stateMutability": "view",
      "type": "function"
    },
    {
      "inputs": [
        {
          "internalType": "uint256",
          "name": "",
          "type": "uint256"
        }
      ],
      "name": "pepsiPendingEmployees",
      "outputs": [
        {
          "internalType": "address",
          "name": "",
          "type": "address"
        }
      ],
      "stateMutability": "view",
      "type": "function"
    },
    {
      "inputs": [
        {
          "internalType": "uint256",
          "name": "_companyId",
          "type": "uint256"
        },
        {
          "internalType": "address",
          "name": "_employeeAddress",
          "type": "address"
        }
      ],
      "name": "removeEmployee",
      "outputs": [],
      "stateMutability": "nonpayable",
      "type": "function"
    },
    {
      "inputs": [
        {
          "internalType": "uint256",
          "name": "_maxBookingsPerUser",
          "type": "uint256"
        }
      ],
      "name": "setMaxBookingPerUser",
      "outputs": [],
      "stateMutability": "nonpayable",
      "type": "function"
    },
    {
      "inputs": [
        {
          "internalType": "uint256",
          "name": "_companyId",
          "type": "uint256"
        }
      ],
      "name": "signUpEmployee",
      "outputs": [],
      "stateMutability": "nonpayable",
      "type": "function"
    },
    {
      "inputs": [],
      "name": "startBookings",
      "outputs": [],
      "stateMutability": "nonpayable",
      "type": "function"
    },
    {
      "inputs": [],
      "name": "stopBookings",
      "outputs": [],
      "stateMutability": "nonpayable",
      "type": "function"
    }
  ],
  "bytecode": "0x608060405260016002556001600360006101000a81548160ff02191690831515021790555060405180604001604052806040518060400160405280600881526020017f436f6361436f6c6100000000000000000000000000000000000000000000000081525081526020016040518060400160405280600581526020017f50657073690000000000000000000000000000000000000000000000000000008152508152506005906002620000b5929190620001be565b506001600755348015620000c857600080fd5b50604051620039ef380380620039ef8339818101604052810190620000ee919062000364565b82600181905550816000806101000a81548173ffffffffffffffffffffffffffffffffffffffff021916908373ffffffffffffffffffffffffffffffffffffffff1602179055508060048190555060005b8160306200014e9190620003c0565b811015620001965760096000908060018154018082558091505060019003906000526020600020016000909190919091505580806200018d9062000495565b9150506200013f565b50600a600181600181540180825580915050039060005260206000209050505050506200057a565b826002810192821562000205579160200282015b8281111562000204578251829080519060200190620001f392919062000218565b5091602001919060010190620001d2565b5b509050620002149190620002a9565b5090565b82805462000226906200045f565b90600052602060002090601f0160209004810192826200024a576000855562000296565b82601f106200026557805160ff191683800117855562000296565b8280016001018555821562000296579182015b828111156200029557825182559160200191906001019062000278565b5b509050620002a59190620002d1565b5090565b5b80821115620002cd5760008181620002c39190620002f0565b50600101620002aa565b5090565b5b80821115620002ec576000816000905550600101620002d2565b5090565b508054620002fe906200045f565b6000825580601f1062000312575062000333565b601f016020900490600052602060002090810190620003329190620002d1565b5b50565b600081519050620003478162000546565b92915050565b6000815190506200035e8162000560565b92915050565b60008060006060848603121562000380576200037f62000541565b5b600062000390868287016200034d565b9350506020620003a38682870162000336565b9250506040620003b6868287016200034d565b9150509250925092565b6000620003cd8262000455565b9150620003da8362000455565b9250817fffffffffffffffffffffffffffffffffffffffffffffffffffffffffffffffff0483118215151615620004165762000415620004e3565b5b828202905092915050565b60006200042e8262000435565b9050919050565b600073ffffffffffffffffffffffffffffffffffffffff82169050919050565b6000819050919050565b600060028204905060018216806200047857607f821691505b602082108114156200048f576200048e62000512565b5b50919050565b6000620004a28262000455565b91507fffffffffffffffffffffffffffffffffffffffffffffffffffffffffffffffff821415620004d857620004d7620004e3565b5b600182019050919050565b7f4e487b7100000000000000000000000000000000000000000000000000000000600052601160045260246000fd5b7f4e487b7100000000000000000000000000000000000000000000000000000000600052602260045260246000fd5b600080fd5b620005518162000421565b81146200055d57600080fd5b50565b6200056b8162000455565b81146200057757600080fd5b50565b613465806200058a6000396000f3fe608060405234801561001057600080fd5b50600436106101e55760003560e01c80636b6e56f41161010f578063d7a24c3b116100a2578063f980be2c11610071578063f980be2c146105d2578063f9a248c714610602578063fe869e7514610632578063ffd650a31461064e576101e5565b8063d7a24c3b14610524578063e179744c14610554578063f0f3e5a114610584578063f788c327146105a2576101e5565b8063b0517141116100de578063b0517141146104d6578063c8c32bc9146104f2578063cebc046f146104fc578063d5305b751461051a576101e5565b80636b6e56f41461046057806378cdd5741461047e5780638da5cb5b1461049c578063aa9a6f01146104ba576101e5565b8063429e27c0116101875780635d1405d4116101565780635d1405d4146103a057806361980521146103d0578063649e27e514610400578063689381e314610430576101e5565b8063429e27c0146102e05780634363f1ba1461031057806350ffc75a14610340578063562eff4014610370576101e5565b806330050063116101c35780633005006314610254578063323046b114610272578063393ec2ba14610290578063397914c6146102c4576101e5565b8063054930f9146101ea57806321a4cfa71461021a5780632ff77cb414610238575b600080fd5b61020460048036038101906101ff9190612400565b61067e565b60405161021191906129de565b60405180910390f35b6102226107a6565b60405161022f9190612c7c565b60405180910390f35b610252600480360381019061024d919061242d565b6107bc565b005b61025c610940565b6040516102699190612c7c565b60405180910390f35b61027a610946565b6040516102879190612c7c565b60405180910390f35b6102aa60048036038101906102a59190612400565b61094c565b6040516102bb959493929190612cce565b60405180910390f35b6102de60048036038101906102d9919061242d565b6109b2565b005b6102fa60048036038101906102f59190612400565b610c5b565b60405161030791906129c3565b60405180910390f35b61032a60048036038101906103259190612400565b610c9a565b60405161033791906129c3565b60405180910390f35b61035a600480360381019061035591906123d3565b610cd9565b6040516103679190612c7c565b60405180910390f35b61038a60048036038101906103859190612400565b610cf1565b60405161039791906129c3565b60405180910390f35b6103ba60048036038101906103b5919061246d565b610d30565b6040516103c79190612a22565b60405180910390f35b6103ea60048036038101906103e5919061242d565b610df4565b6040516103f79190612a44565b60405180910390f35b61041a600480360381019061041591906124ad565b610f4f565b6040516104279190612a44565b60405180910390f35b61044a60048036038101906104459190612400565b610f85565b6040516104579190612c7c565b60405180910390f35b610468610fa9565b6040516104759190612c7c565b60405180910390f35b610486610faf565b6040516104939190612c7c565b60405180910390f35b6104a4610ff6565b6040516104b191906129c3565b60405180910390f35b6104d460048036038101906104cf9190612400565b61101a565b005b6104f060048036038101906104eb919061242d565b61107c565b005b6104fa6112dc565b005b6105046113a7565b6040516105119190612a00565b60405180910390f35b6105226115e1565b005b61053e60048036038101906105399190612400565b6116ac565b60405161054b91906129c3565b60405180910390f35b61056e6004803603810190610569919061246d565b6116eb565b60405161057b9190612c61565b60405180910390f35b61058c6119c4565b6040516105999190612a44565b60405180910390f35b6105bc60048036038101906105b7919061246d565b6119d7565b6040516105c99190612c7c565b60405180910390f35b6105ec60048036038101906105e79190612400565b611d1f565b6040516105f991906129de565b60405180910390f35b61061c60048036038101906106179190612400565b611e47565b6040516106299190612a5f565b60405180910390f35b61064c60048036038101906106479190612400565b611eea565b005b6106686004803603810190610663919061242d565b6120ee565b6040516106759190612a44565b60405180910390f35b6060600082141561071757600b80548060200260200160405190810160405280929190818152602001828054801561070b57602002820191906000526020600020905b8160009054906101000a900473ffffffffffffffffffffffffffffffffffffffff1673ffffffffffffffffffffffffffffffffffffffff16815260200190600101908083116106c1575b505050505090506107a1565b600c80548060200260200160405190810160405280929190818152602001828054801561079957602002820191906000526020600020905b8160009054906101000a900473ffffffffffffffffffffffffffffffffffffffff1673ffffffffffffffffffffffffffffffffffffffff168152602001906001019080831161074f575b505050505090505b919050565b600060016007546107b79190612ed3565b905090565b60008054906101000a900473ffffffffffffffffffffffffffffffffffffffff1673ffffffffffffffffffffffffffffffffffffffff163373ffffffffffffffffffffffffffffffffffffffff161461081457600080fd5b61081e82826120ee565b61085d576040517f08c379a000000000000000000000000000000000000000000000000000000000815260040161085490612a81565b60405180910390fd5b60008214156108ce57600d819080600181540180825580915050600190039060005260206000200160009091909190916101000a81548173ffffffffffffffffffffffffffffffffffffffff021916908373ffffffffffffffffffffffffffffffffffffffff160217905550610932565b600e819080600181540180825580915050600190039060005260206000200160009091909190916101000a81548173ffffffffffffffffffffffffffffffffffffffff021916908373ffffffffffffffffffffffffffffffffffffffff1602179055505b61093c828261107c565b5050565b60025481565b60015481565b600a818154811061095c57600080fd5b90600052602060002090600502016000915090508060000154908060010154908060020154908060030154908060040160009054906101000a900473ffffffffffffffffffffffffffffffffffffffff16905085565b60008054906101000a900473ffffffffffffffffffffffffffffffffffffffff1673ffffffffffffffffffffffffffffffffffffffff163373ffffffffffffffffffffffffffffffffffffffff1614610a0a57600080fd5b610a148282610df4565b610a53576040517f08c379a0000000000000000000000000000000000000000000000000000000008152600401610a4a90612b41565b60405180910390fd5b6000821415610b5b5760005b600d80549050811015610b55578173ffffffffffffffffffffffffffffffffffffffff16600d8281548110610a9757610a96613068565b5b9060005260206000200160009054906101000a900473ffffffffffffffffffffffffffffffffffffffff1673ffffffffffffffffffffffffffffffffffffffff161415610b42576000600d8281548110610af457610af3613068565b5b9060005260206000200160006101000a81548173ffffffffffffffffffffffffffffffffffffffff021916908373ffffffffffffffffffffffffffffffffffffffff16021790555050610c57565b8080610b4d90612fc1565b915050610a5f565b50610c56565b60005b600e80549050811015610c54578173ffffffffffffffffffffffffffffffffffffffff16600e8281548110610b9657610b95613068565b5b9060005260206000200160009054906101000a900473ffffffffffffffffffffffffffffffffffffffff1673ffffffffffffffffffffffffffffffffffffffff161415610c41576000600e8281548110610bf357610bf2613068565b5b9060005260206000200160006101000a81548173ffffffffffffffffffffffffffffffffffffffff021916908373ffffffffffffffffffffffffffffffffffffffff16021790555050610c57565b8080610c4c90612fc1565b915050610b5e565b505b5b5050565b600e8181548110610c6b57600080fd5b906000526020600020016000915054906101000a900473ffffffffffffffffffffffffffffffffffffffff1681565b600d8181548110610caa57600080fd5b906000526020600020016000915054906101000a900473ffffffffffffffffffffffffffffffffffffffff1681565b60086020528060005260406000206000915090505481565b600b8181548110610d0157600080fd5b906000526020600020016000915054906101000a900473ffffffffffffffffffffffffffffffffffffffff1681565b6060600060045467ffffffffffffffff811115610d5057610d4f613097565b5b604051908082528060200260200182016040528015610d7e5781602001602082028036833780820191505090505b50905060005b600454811015610de9576009610d9b868684612249565b81548110610dac57610dab613068565b5b9060005260206000200154828281518110610dca57610dc9613068565b5b6020026020010181815250508080610de190612fc1565b915050610d84565b508091505092915050565b600080831415610ea35760005b600d80549050811015610e9d578273ffffffffffffffffffffffffffffffffffffffff16600d8281548110610e3957610e38613068565b5b9060005260206000200160009054906101000a900473ffffffffffffffffffffffffffffffffffffffff1673ffffffffffffffffffffffffffffffffffffffff161415610e8a576001915050610f49565b8080610e9590612fc1565b915050610e01565b50610f44565b60005b600e80549050811015610f42578273ffffffffffffffffffffffffffffffffffffffff16600e8281548110610ede57610edd613068565b5b9060005260206000200160009054906101000a900473ffffffffffffffffffffffffffffffffffffffff1673ffffffffffffffffffffffffffffffffffffffff161415610f2f576001915050610f49565b8080610f3a90612fc1565b915050610ea6565b505b600090505b92915050565b6000806009610f5f868686612249565b81548110610f7057610f6f613068565b5b90600052602060002001541190509392505050565b60098181548110610f9557600080fd5b906000526020600020016000915090505481565b60045481565b6000600860003373ffffffffffffffffffffffffffffffffffffffff1673ffffffffffffffffffffffffffffffffffffffff16815260200190815260200160002054905090565b60008054906101000a900473ffffffffffffffffffffffffffffffffffffffff1681565b60008054906101000a900473ffffffffffffffffffffffffffffffffffffffff1673ffffffffffffffffffffffffffffffffffffffff163373ffffffffffffffffffffffffffffffffffffffff161461107257600080fd5b8060028190555050565b60008054906101000a900473ffffffffffffffffffffffffffffffffffffffff1673ffffffffffffffffffffffffffffffffffffffff163373ffffffffffffffffffffffffffffffffffffffff16146110d457600080fd5b60008214156111dc5760005b600b805490508110156111d6578173ffffffffffffffffffffffffffffffffffffffff16600b828154811061111857611117613068565b5b9060005260206000200160009054906101000a900473ffffffffffffffffffffffffffffffffffffffff1673ffffffffffffffffffffffffffffffffffffffff1614156111c3576000600b828154811061117557611174613068565b5b9060005260206000200160006101000a81548173ffffffffffffffffffffffffffffffffffffffff021916908373ffffffffffffffffffffffffffffffffffffffff160217905550506112d8565b80806111ce90612fc1565b9150506110e0565b506112d7565b60005b600c805490508110156112d5578173ffffffffffffffffffffffffffffffffffffffff16600c828154811061121757611216613068565b5b9060005260206000200160009054906101000a900473ffffffffffffffffffffffffffffffffffffffff1673ffffffffffffffffffffffffffffffffffffffff1614156112c2576000600c828154811061127457611273613068565b5b9060005260206000200160006101000a81548173ffffffffffffffffffffffffffffffffffffffff021916908373ffffffffffffffffffffffffffffffffffffffff160217905550506112d8565b80806112cd90612fc1565b9150506111df565b505b5b5050565b60008054906101000a900473ffffffffffffffffffffffffffffffffffffffff1673ffffffffffffffffffffffffffffffffffffffff163373ffffffffffffffffffffffffffffffffffffffff161461133457600080fd5b60001515600360009054906101000a900460ff1615151461138a576040517f08c379a000000000000000000000000000000000000000000000000000000000815260040161138190612b01565b60405180910390fd5b6001600360006101000a81548160ff021916908315150217905550565b606060006113b3610faf565b90506000808267ffffffffffffffff8111156113d2576113d1613097565b5b60405190808252806020026020018201604052801561140b57816020015b6113f8612364565b8152602001906001900390816113f05790505b50905060005b600454600260186114229190612e98565b60ff1661142f9190612e3e565b8110156115d7573373ffffffffffffffffffffffffffffffffffffffff16600a6009838154811061146357611462613068565b5b90600052602060002001548154811061147f5761147e613068565b5b906000526020600020906005020160040160009054906101000a900473ffffffffffffffffffffffffffffffffffffffff1673ffffffffffffffffffffffffffffffffffffffff1614156115c457600a600982815481106114e3576114e2613068565b5b9060005260206000200154815481106114ff576114fe613068565b5b90600052602060002090600502016040518060a0016040529081600082015481526020016001820154815260200160028201548152602001600382015481526020016004820160009054906101000a900473ffffffffffffffffffffffffffffffffffffffff1673ffffffffffffffffffffffffffffffffffffffff1673ffffffffffffffffffffffffffffffffffffffff16815250508284815181106115a9576115a8613068565b5b60200260200101819052506001836115c19190612de8565b92505b80806115cf90612fc1565b915050611411565b5080935050505090565b60008054906101000a900473ffffffffffffffffffffffffffffffffffffffff1673ffffffffffffffffffffffffffffffffffffffff163373ffffffffffffffffffffffffffffffffffffffff161461163957600080fd5b60011515600360009054906101000a900460ff1615151461168f576040517f08c379a000000000000000000000000000000000000000000000000000000000815260040161168690612b01565b60405180910390fd5b6000600360006101000a81548160ff021916908315150217905550565b600c81815481106116bc57600080fd5b906000526020600020016000915054906101000a900473ffffffffffffffffffffffffffffffffffffffff1681565b6116f3612364565b6116fe600033610df4565b80611710575061170f600133610df4565b5b61174f576040517f08c379a000000000000000000000000000000000000000000000000000000000815260040161174690612c01565b60405180910390fd5b600061175c600033610df4565b61176757600061176a565b60015b60ff1690506000600961177e838787612249565b8154811061178f5761178e613068565b5b90600052602060002001549050600a81815481106117b0576117af613068565b5b906000526020600020906005020160040160009054906101000a900473ffffffffffffffffffffffffffffffffffffffff1673ffffffffffffffffffffffffffffffffffffffff163373ffffffffffffffffffffffffffffffffffffffff161461184f576040517f08c379a000000000000000000000000000000000000000000000000000000000815260040161184690612be1565b60405180910390fd5b6000600961185e848888612249565b8154811061186f5761186e613068565b5b90600052602060002001819055506001600860003373ffffffffffffffffffffffffffffffffffffffff1673ffffffffffffffffffffffffffffffffffffffff16815260200190815260200160002060008282546118cd9190612ed3565b925050819055507f96424ea7a0b99aae99dd4cb4edf03aef21627a8c4407cbcb5fcd9b55c7749daa82868660405161190793929190612c97565b60405180910390a1600a818154811061192357611922613068565b5b90600052602060002090600502016040518060a0016040529081600082015481526020016001820154815260200160028201548152602001600382015481526020016004820160009054906101000a900473ffffffffffffffffffffffffffffffffffffffff1673ffffffffffffffffffffffffffffffffffffffff1673ffffffffffffffffffffffffffffffffffffffff16815250509250505092915050565b600360009054906101000a900460ff1681565b60006002546119e4610faf565b10611a24576040517f08c379a0000000000000000000000000000000000000000000000000000000008152600401611a1b90612ac1565b60405180910390fd5b600360009054906101000a900460ff16611a73576040517f08c379a0000000000000000000000000000000000000000000000000000000008152600401611a6a90612b81565b60405180910390fd5b611a7e600033610df4565b80611a905750611a8f600133610df4565b5b611acf576040517f08c379a0000000000000000000000000000000000000000000000000000000008152600401611ac690612c01565b60405180910390fd5b6000611adc600033610df4565b611ae7576000611aea565b60015b60ff169050611afa818585610f4f565b15611b3a576040517f08c379a0000000000000000000000000000000000000000000000000000000008152600401611b3190612c21565b60405180910390fd5b600160076000828254611b4d9190612de8565b925050819055506001600754611b639190612ed3565b6009611b70838787612249565b81548110611b8157611b80613068565b5b90600052602060002001819055506001600860003373ffffffffffffffffffffffffffffffffffffffff1673ffffffffffffffffffffffffffffffffffffffff1681526020019081526020016000206000828254611bdf9190612de8565b92505081905550600a6040518060a001604052804281526020018381526020018681526020018581526020013373ffffffffffffffffffffffffffffffffffffffff1681525090806001815401808255809150506001900390600052602060002090600502016000909190919091506000820151816000015560208201518160010155604082015181600201556060820151816003015560808201518160040160006101000a81548173ffffffffffffffffffffffffffffffffffffffff021916908373ffffffffffffffffffffffffffffffffffffffff160217905550505083816001600754611cd09190612ed3565b7f88707363e597a742862c2627eed91c412b4fd9f0ee7135528dbc8011906b99bf86604051611cff9190612c7c565b60405180910390a46001600754611d169190612ed3565b91505092915050565b60606001821415611db857600d805480602002602001604051908101604052809291908181526020018280548015611dac57602002820191906000526020600020905b8160009054906101000a900473ffffffffffffffffffffffffffffffffffffffff1673ffffffffffffffffffffffffffffffffffffffff1681526020019060010190808311611d62575b50505050509050611e42565b600e805480602002602001604051908101604052809291908181526020018280548015611e3a57602002820191906000526020600020905b8160009054906101000a900473ffffffffffffffffffffffffffffffffffffffff1673ffffffffffffffffffffffffffffffffffffffff1681526020019060010190808311611df0575b505050505090505b919050565b60058160028110611e5757600080fd5b016000915090508054611e6990612f8f565b80601f0160208091040260200160405190810160405280929190818152602001828054611e9590612f8f565b8015611ee25780601f10611eb757610100808354040283529160200191611ee2565b820191906000526020600020905b815481529060010190602001808311611ec557829003601f168201915b505050505081565b611ef56000336120ee565b15611f35576040517f08c379a0000000000000000000000000000000000000000000000000000000008152600401611f2c90612b21565b60405180910390fd5b611f406001336120ee565b15611f80576040517f08c379a0000000000000000000000000000000000000000000000000000000008152600401611f7790612bc1565b60405180910390fd5b611f8b600033610df4565b15611fcb576040517f08c379a0000000000000000000000000000000000000000000000000000000008152600401611fc290612ae1565b60405180910390fd5b611fd6600133610df4565b15612016576040517f08c379a000000000000000000000000000000000000000000000000000000000815260040161200d90612b61565b60405180910390fd5b600081141561208757600b339080600181540180825580915050600190039060005260206000200160009091909190916101000a81548173ffffffffffffffffffffffffffffffffffffffff021916908373ffffffffffffffffffffffffffffffffffffffff1602179055506120eb565b600c339080600181540180825580915050600190039060005260206000200160009091909190916101000a81548173ffffffffffffffffffffffffffffffffffffffff021916908373ffffffffffffffffffffffffffffffffffffffff1602179055505b50565b60008083141561219d5760005b600b80549050811015612197578273ffffffffffffffffffffffffffffffffffffffff16600b828154811061213357612132613068565b5b9060005260206000200160009054906101000a900473ffffffffffffffffffffffffffffffffffffffff1673ffffffffffffffffffffffffffffffffffffffff161415612184576001915050612243565b808061218f90612fc1565b9150506120fb565b5061223e565b60005b600c8054905081101561223c578273ffffffffffffffffffffffffffffffffffffffff16600c82815481106121d8576121d7613068565b5b9060005260206000200160009054906101000a900473ffffffffffffffffffffffffffffffffffffffff1673ffffffffffffffffffffffffffffffffffffffff161415612229576001915050612243565b808061223490612fc1565b9150506121a0565b505b600090505b92915050565b6000600260ff168410612291576040517f08c379a000000000000000000000000000000000000000000000000000000000815260040161228890612c41565b60405180910390fd5b601883106122d4576040517f08c379a00000000000000000000000000000000000000000000000000000000081526004016122cb90612ba1565b60405180910390fd5b6004548210612318576040517f08c379a000000000000000000000000000000000000000000000000000000000815260040161230f90612aa1565b60405180910390fd5b600060045460188661232a9190612e3e565b6123349190612e3e565b600454856123429190612e3e565b8461234d9190612de8565b6123579190612de8565b9050809150509392505050565b6040518060a0016040528060008152602001600081526020016000815260200160008152602001600073ffffffffffffffffffffffffffffffffffffffff1681525090565b6000813590506123b881613401565b92915050565b6000813590506123cd81613418565b92915050565b6000602082840312156123e9576123e86130c6565b5b60006123f7848285016123a9565b91505092915050565b600060208284031215612416576124156130c6565b5b6000612424848285016123be565b91505092915050565b60008060408385031215612444576124436130c6565b5b6000612452858286016123be565b9250506020612463858286016123a9565b9150509250929050565b60008060408385031215612484576124836130c6565b5b6000612492858286016123be565b92505060206124a3858286016123be565b9150509250929050565b6000806000606084860312156124c6576124c56130c6565b5b60006124d4868287016123be565b93505060206124e5868287016123be565b92505060406124f6868287016123be565b9150509250925092565b600061250c8383612548565b60208301905092915050565b600061252483836128d5565b60a08301905092915050565b600061253c83836129a5565b60208301905092915050565b61255181612f07565b82525050565b61256081612f07565b82525050565b600061257182612d51565b61257b8185612da4565b935061258683612d21565b8060005b838110156125b757815161259e8882612500565b97506125a983612d7d565b92505060018101905061258a565b5085935050505092915050565b60006125cf82612d5c565b6125d98185612db5565b93506125e483612d31565b8060005b838110156126155781516125fc8882612518565b975061260783612d8a565b9250506001810190506125e8565b5085935050505092915050565b600061262d82612d67565b6126378185612dc6565b935061264283612d41565b8060005b8381101561267357815161265a8882612530565b975061266583612d97565b925050600181019050612646565b5085935050505092915050565b61268981612f19565b82525050565b600061269a82612d72565b6126a48185612dd7565b93506126b4818560208601612f5c565b6126bd816130cb565b840191505092915050565b60006126d5601f83612dd7565b91506126e0826130dc565b602082019050919050565b60006126f8601183612dd7565b915061270382613105565b602082019050919050565b600061271b601f83612dd7565b91506127268261312e565b602082019050919050565b600061273e602483612dd7565b915061274982613157565b604082019050919050565b6000612761601e83612dd7565b915061276c826131a6565b602082019050919050565b6000612784602983612dd7565b915061278f826131cf565b604082019050919050565b60006127a7601783612dd7565b91506127b28261321e565b602082019050919050565b60006127ca602183612dd7565b91506127d582613247565b604082019050919050565b60006127ed601483612dd7565b91506127f882613296565b602082019050919050565b6000612810600b83612dd7565b915061281b826132bf565b602082019050919050565b6000612833602683612dd7565b915061283e826132e8565b604082019050919050565b6000612856601e83612dd7565b915061286182613337565b602082019050919050565b6000612879602383612dd7565b915061288482613360565b604082019050919050565b600061289c601583612dd7565b91506128a7826133af565b602082019050919050565b60006128bf601483612dd7565b91506128ca826133d8565b602082019050919050565b60a0820160008201516128eb60008501826129a5565b5060208201516128fe60208501826129a5565b50604082015161291160408501826129a5565b50606082015161292460608501826129a5565b5060808201516129376080850182612548565b50505050565b60a08201600082015161295360008501826129a5565b50602082015161296660208501826129a5565b50604082015161297960408501826129a5565b50606082015161298c60608501826129a5565b50608082015161299f6080850182612548565b50505050565b6129ae81612f45565b82525050565b6129bd81612f45565b82525050565b60006020820190506129d86000830184612557565b92915050565b600060208201905081810360008301526129f88184612566565b905092915050565b60006020820190508181036000830152612a1a81846125c4565b905092915050565b60006020820190508181036000830152612a3c8184612622565b905092915050565b6000602082019050612a596000830184612680565b92915050565b60006020820190508181036000830152612a79818461268f565b905092915050565b60006020820190508181036000830152612a9a816126c8565b9050919050565b60006020820190508181036000830152612aba816126eb565b9050919050565b60006020820190508181036000830152612ada8161270e565b9050919050565b60006020820190508181036000830152612afa81612731565b9050919050565b60006020820190508181036000830152612b1a81612754565b9050919050565b60006020820190508181036000830152612b3a81612777565b9050919050565b60006020820190508181036000830152612b5a8161279a565b9050919050565b60006020820190508181036000830152612b7a816127bd565b9050919050565b60006020820190508181036000830152612b9a816127e0565b9050919050565b60006020820190508181036000830152612bba81612803565b9050919050565b60006020820190508181036000830152612bda81612826565b9050919050565b60006020820190508181036000830152612bfa81612849565b9050919050565b60006020820190508181036000830152612c1a8161286c565b9050919050565b60006020820190508181036000830152612c3a8161288f565b9050919050565b60006020820190508181036000830152612c5a816128b2565b9050919050565b600060a082019050612c76600083018461293d565b92915050565b6000602082019050612c9160008301846129b4565b92915050565b6000606082019050612cac60008301866129b4565b612cb960208301856129b4565b612cc660408301846129b4565b949350505050565b600060a082019050612ce360008301886129b4565b612cf060208301876129b4565b612cfd60408301866129b4565b612d0a60608301856129b4565b612d176080830184612557565b9695505050505050565b6000819050602082019050919050565b6000819050602082019050919050565b6000819050602082019050919050565b600081519050919050565b600081519050919050565b600081519050919050565b600081519050919050565b6000602082019050919050565b6000602082019050919050565b6000602082019050919050565b600082825260208201905092915050565b600082825260208201905092915050565b600082825260208201905092915050565b600082825260208201905092915050565b6000612df382612f45565b9150612dfe83612f45565b9250827fffffffffffffffffffffffffffffffffffffffffffffffffffffffffffffffff03821115612e3357612e3261300a565b5b828201905092915050565b6000612e4982612f45565b9150612e5483612f45565b9250817fffffffffffffffffffffffffffffffffffffffffffffffffffffffffffffffff0483118215151615612e8d57612e8c61300a565b5b828202905092915050565b6000612ea382612f4f565b9150612eae83612f4f565b92508160ff0483118215151615612ec857612ec761300a565b5b828202905092915050565b6000612ede82612f45565b9150612ee983612f45565b925082821015612efc57612efb61300a565b5b828203905092915050565b6000612f1282612f25565b9050919050565b60008115159050919050565b600073ffffffffffffffffffffffffffffffffffffffff82169050919050565b6000819050919050565b600060ff82169050919050565b60005b83811015612f7a578082015181840152602081019050612f5f565b83811115612f89576000848401525b50505050565b60006002820490506001821680612fa757607f821691505b60208210811415612fbb57612fba613039565b5b50919050565b6000612fcc82612f45565b91507fffffffffffffffffffffffffffffffffffffffffffffffffffffffffffffffff821415612fff57612ffe61300a565b5b600182019050919050565b7f4e487b7100000000000000000000000000000000000000000000000000000000600052601160045260246000fd5b7f4e487b7100000000000000000000000000000000000000000000000000000000600052602260045260246000fd5b7f4e487b7100000000000000000000000000000000000000000000000000000000600052603260045260246000fd5b7f4e487b7100000000000000000000000000000000000000000000000000000000600052604160045260246000fd5b600080fd5b6000601f19601f8301169050919050565b7f456d706c6f796565206973206e6f7420696e2070656e64696e67206c69737400600082015250565b7f526f6f6d204964206e6f74206578697374000000000000000000000000000000600082015250565b7f557365722063616e6e6f7420706c616365206d6f726520626f6f6b696e677300600082015250565b7f456d706c6f79656520616c72656164792062656c6f6e677320746f20436f636160008201527f436f6c6100000000000000000000000000000000000000000000000000000000602082015250565b7f426f6f6b696e67732061726520616c72656164792063616e63656c6c65640000600082015250565b7f456d706c6f7965652069732050656e64696e6720466f7220436f6361436f6c6160008201527f20417070726f76616c0000000000000000000000000000000000000000000000602082015250565b7f4164647265737320646f6573206e6f742062656c6f6e67000000000000000000600082015250565b7f456d706c6f79656520616c72656164792062656c6f6e677320746f205065707360008201527f6900000000000000000000000000000000000000000000000000000000000000602082015250565b7f426f6f6b696e6773206172652064697361626c65000000000000000000000000600082015250565b7f556e74696c20313120706d000000000000000000000000000000000000000000600082015250565b7f456d706c6f7965652069732050656e64696e6720466f7220506570736920417060008201527f70726f76616c0000000000000000000000000000000000000000000000000000602082015250565b7f6f6e6c7920626f6f6b657220757365722063616e2063616e63656c2069740000600082015250565b7f7573657220646f6573206e6f742062656c6f6e6720746f20616e7920636f6d7060008201527f616e790000000000000000000000000000000000000000000000000000000000602082015250565b7f526f6f6d204973204e6f7420417661696c61626c650000000000000000000000600082015250565b7f436f6d70616e79204964206e6f74206578697374000000000000000000000000600082015250565b61340a81612f07565b811461341557600080fd5b50565b61342181612f45565b811461342c57600080fd5b5056fea2646970667358221220591d4c3915edb33cdca008c4188a1bd50e951e5de08eefb783e1cf76b9559eab64736f6c63430008070033",
  "linkReferences": {},
  "deployedLinkReferences": {}
}